{
  "_format": "hh-sol-artifact-1",
  "contractName": "Domains",
  "sourceName": "contracts/Domains.sol",
  "abi": [
    {
      "inputs": [
        {
          "internalType": "string",
          "name": "_tld",
          "type": "string"
        }
      ],
      "stateMutability": "payable",
      "type": "constructor"
    },
    {
      "inputs": [],
      "name": "AlreadyRegistered",
      "type": "error"
    },
    {
      "inputs": [
        {
          "internalType": "string",
          "name": "name",
          "type": "string"
        }
      ],
      "name": "InvalidName",
      "type": "error"
    },
    {
      "inputs": [],
      "name": "Unauthorized",
      "type": "error"
    },
    {
      "anonymous": false,
      "inputs": [
        {
          "indexed": true,
          "internalType": "address",
          "name": "owner",
          "type": "address"
        },
        {
          "indexed": true,
          "internalType": "address",
          "name": "approved",
          "type": "address"
        },
        {
          "indexed": true,
          "internalType": "uint256",
          "name": "tokenId",
          "type": "uint256"
        }
      ],
      "name": "Approval",
      "type": "event"
    },
    {
      "anonymous": false,
      "inputs": [
        {
          "indexed": true,
          "internalType": "address",
          "name": "owner",
          "type": "address"
        },
        {
          "indexed": true,
          "internalType": "address",
          "name": "operator",
          "type": "address"
        },
        {
          "indexed": false,
          "internalType": "bool",
          "name": "approved",
          "type": "bool"
        }
      ],
      "name": "ApprovalForAll",
      "type": "event"
    },
    {
      "anonymous": false,
      "inputs": [
        {
          "indexed": true,
          "internalType": "address",
          "name": "from",
          "type": "address"
        },
        {
          "indexed": true,
          "internalType": "address",
          "name": "to",
          "type": "address"
        },
        {
          "indexed": true,
          "internalType": "uint256",
          "name": "tokenId",
          "type": "uint256"
        }
      ],
      "name": "Transfer",
      "type": "event"
    },
    {
      "inputs": [
        {
          "internalType": "address",
          "name": "to",
          "type": "address"
        },
        {
          "internalType": "uint256",
          "name": "tokenId",
          "type": "uint256"
        }
      ],
      "name": "approve",
      "outputs": [],
      "stateMutability": "nonpayable",
      "type": "function"
    },
    {
      "inputs": [
        {
          "internalType": "address",
          "name": "owner",
          "type": "address"
        }
      ],
      "name": "balanceOf",
      "outputs": [
        {
          "internalType": "uint256",
          "name": "",
          "type": "uint256"
        }
      ],
      "stateMutability": "view",
      "type": "function"
    },
    {
      "inputs": [
        {
          "internalType": "string",
          "name": "",
          "type": "string"
        }
      ],
      "name": "domains",
      "outputs": [
        {
          "internalType": "address",
          "name": "",
          "type": "address"
        }
      ],
      "stateMutability": "view",
      "type": "function"
    },
    {
      "inputs": [
        {
          "internalType": "string",
          "name": "",
          "type": "string"
        }
      ],
      "name": "emails",
      "outputs": [
        {
          "internalType": "string",
          "name": "",
          "type": "string"
        }
      ],
      "stateMutability": "view",
      "type": "function"
    },
    {
      "inputs": [
        {
          "internalType": "string",
          "name": "name",
          "type": "string"
        }
      ],
      "name": "getAddress",
      "outputs": [
        {
          "internalType": "address",
          "name": "",
          "type": "address"
        }
      ],
      "stateMutability": "view",
      "type": "function"
    },
    {
      "inputs": [],
      "name": "getAllNames",
      "outputs": [
        {
          "internalType": "string[]",
          "name": "",
          "type": "string[]"
        }
      ],
      "stateMutability": "view",
      "type": "function"
    },
    {
      "inputs": [
        {
          "internalType": "uint256",
          "name": "tokenId",
          "type": "uint256"
        }
      ],
      "name": "getApproved",
      "outputs": [
        {
          "internalType": "address",
          "name": "",
          "type": "address"
        }
      ],
      "stateMutability": "view",
      "type": "function"
    },
    {
      "inputs": [
        {
          "internalType": "string",
          "name": "name",
          "type": "string"
        }
      ],
      "name": "getEmail",
      "outputs": [
        {
          "internalType": "string",
          "name": "",
          "type": "string"
        }
      ],
      "stateMutability": "view",
      "type": "function"
    },
    {
      "inputs": [
        {
          "internalType": "string",
          "name": "name",
          "type": "string"
        }
      ],
      "name": "getRecord",
      "outputs": [
        {
          "internalType": "string",
          "name": "",
          "type": "string"
        }
      ],
      "stateMutability": "view",
      "type": "function"
    },
    {
      "inputs": [
        {
          "internalType": "address",
          "name": "owner",
          "type": "address"
        },
        {
          "internalType": "address",
          "name": "operator",
          "type": "address"
        }
      ],
      "name": "isApprovedForAll",
      "outputs": [
        {
          "internalType": "bool",
          "name": "",
          "type": "bool"
        }
      ],
      "stateMutability": "view",
      "type": "function"
    },
    {
      "inputs": [],
      "name": "isOwner",
      "outputs": [
        {
          "internalType": "bool",
          "name": "",
          "type": "bool"
        }
      ],
      "stateMutability": "view",
      "type": "function"
    },
    {
      "inputs": [],
      "name": "name",
      "outputs": [
        {
          "internalType": "string",
          "name": "",
          "type": "string"
        }
      ],
      "stateMutability": "view",
      "type": "function"
    },
    {
      "inputs": [
        {
          "internalType": "uint256",
          "name": "",
          "type": "uint256"
        }
      ],
      "name": "names",
      "outputs": [
        {
          "internalType": "string",
          "name": "",
          "type": "string"
        }
      ],
      "stateMutability": "view",
      "type": "function"
    },
    {
      "inputs": [],
      "name": "owner",
      "outputs": [
        {
          "internalType": "address payable",
          "name": "",
          "type": "address"
        }
      ],
      "stateMutability": "view",
      "type": "function"
    },
    {
      "inputs": [
        {
          "internalType": "uint256",
          "name": "tokenId",
          "type": "uint256"
        }
      ],
      "name": "ownerOf",
      "outputs": [
        {
          "internalType": "address",
          "name": "",
          "type": "address"
        }
      ],
      "stateMutability": "view",
      "type": "function"
    },
    {
      "inputs": [
        {
          "internalType": "string",
          "name": "name",
          "type": "string"
        }
      ],
      "name": "price",
      "outputs": [
        {
          "internalType": "uint256",
          "name": "",
          "type": "uint256"
        }
      ],
      "stateMutability": "pure",
      "type": "function"
    },
    {
      "inputs": [
        {
          "internalType": "string",
          "name": "",
          "type": "string"
        }
      ],
      "name": "records",
      "outputs": [
        {
          "internalType": "string",
          "name": "",
          "type": "string"
        }
      ],
      "stateMutability": "view",
      "type": "function"
    },
    {
      "inputs": [
        {
          "internalType": "string",
          "name": "name",
          "type": "string"
        }
      ],
      "name": "register",
      "outputs": [],
      "stateMutability": "payable",
      "type": "function"
    },
    {
      "inputs": [
        {
          "internalType": "address",
          "name": "from",
          "type": "address"
        },
        {
          "internalType": "address",
          "name": "to",
          "type": "address"
        },
        {
          "internalType": "uint256",
          "name": "tokenId",
          "type": "uint256"
        }
      ],
      "name": "safeTransferFrom",
      "outputs": [],
      "stateMutability": "nonpayable",
      "type": "function"
    },
    {
      "inputs": [
        {
          "internalType": "address",
          "name": "from",
          "type": "address"
        },
        {
          "internalType": "address",
          "name": "to",
          "type": "address"
        },
        {
          "internalType": "uint256",
          "name": "tokenId",
          "type": "uint256"
        },
        {
          "internalType": "bytes",
          "name": "_data",
          "type": "bytes"
        }
      ],
      "name": "safeTransferFrom",
      "outputs": [],
      "stateMutability": "nonpayable",
      "type": "function"
    },
    {
      "inputs": [
        {
          "internalType": "address",
          "name": "operator",
          "type": "address"
        },
        {
          "internalType": "bool",
          "name": "approved",
          "type": "bool"
        }
      ],
      "name": "setApprovalForAll",
      "outputs": [],
      "stateMutability": "nonpayable",
      "type": "function"
    },
    {
      "inputs": [
        {
          "internalType": "string",
          "name": "name",
          "type": "string"
        },
        {
          "internalType": "string",
          "name": "email",
          "type": "string"
        }
      ],
      "name": "setEmail",
      "outputs": [],
      "stateMutability": "nonpayable",
      "type": "function"
    },
    {
      "inputs": [
        {
          "internalType": "string",
          "name": "name",
          "type": "string"
        },
        {
          "internalType": "string",
          "name": "record",
          "type": "string"
        }
      ],
      "name": "setRecord",
      "outputs": [],
      "stateMutability": "nonpayable",
      "type": "function"
    },
    {
      "inputs": [
        {
          "internalType": "bytes4",
          "name": "interfaceId",
          "type": "bytes4"
        }
      ],
      "name": "supportsInterface",
      "outputs": [
        {
          "internalType": "bool",
          "name": "",
          "type": "bool"
        }
      ],
      "stateMutability": "view",
      "type": "function"
    },
    {
      "inputs": [],
      "name": "symbol",
      "outputs": [
        {
          "internalType": "string",
          "name": "",
          "type": "string"
        }
      ],
      "stateMutability": "view",
      "type": "function"
    },
    {
      "inputs": [],
      "name": "tld",
      "outputs": [
        {
          "internalType": "string",
          "name": "",
          "type": "string"
        }
      ],
      "stateMutability": "view",
      "type": "function"
    },
    {
      "inputs": [
        {
          "internalType": "uint256",
          "name": "tokenId",
          "type": "uint256"
        }
      ],
      "name": "tokenURI",
      "outputs": [
        {
          "internalType": "string",
          "name": "",
          "type": "string"
        }
      ],
      "stateMutability": "view",
      "type": "function"
    },
    {
      "inputs": [
        {
          "internalType": "address",
          "name": "from",
          "type": "address"
        },
        {
          "internalType": "address",
          "name": "to",
          "type": "address"
        },
        {
          "internalType": "uint256",
          "name": "tokenId",
          "type": "uint256"
        }
      ],
      "name": "transferFrom",
      "outputs": [],
      "stateMutability": "nonpayable",
      "type": "function"
    },
    {
      "inputs": [
        {
          "internalType": "string",
          "name": "name",
          "type": "string"
        }
      ],
      "name": "valid",
      "outputs": [
        {
          "internalType": "bool",
          "name": "",
          "type": "bool"
        }
      ],
      "stateMutability": "pure",
      "type": "function"
    },
    {
      "inputs": [],
      "name": "withdraw",
      "outputs": [],
      "stateMutability": "nonpayable",
      "type": "function"
    }
  ],
  "bytecode": "0x6080604052604051806108a0016040528061086b81526020016200567f61086b91396009908051906020019062000038929190620002c8565b506040518060400160405280600d81526020017f3c2f746578743e3c2f7376673e00000000000000000000000000000000000000815250600a908051906020019062000086929190620002c8565b5060405162005eea38038062005eea8339818101604052810190620000ac919062000515565b6040518060400160405280601281526020017f4e696e6a61204e616d65205365727669636500000000000000000000000000008152506040518060400160405280600381526020017f4e4e530000000000000000000000000000000000000000000000000000000000815250816000908051906020019062000130929190620002c8565b50806001908051906020019062000149929190620002c8565b50505033600f60006101000a81548173ffffffffffffffffffffffffffffffffffffffff021916908373ffffffffffffffffffffffffffffffffffffffff1602179055508060089080519060200190620001a5929190620002c8565b50620001f26040518060400160405280601881526020017f2573206e616d652073657276696365206465706c6f796564000000000000000081525082620001f960201b62001ebb1760201c565b5062000663565b6200029b828260405160240162000212929190620005c3565b6040516020818303038152906040527f4b5c4277000000000000000000000000000000000000000000000000000000007bffffffffffffffffffffffffffffffffffffffffffffffffffffffff19166020820180517bffffffffffffffffffffffffffffffffffffffffffffffffffffffff83818316178352505050506200029f60201b60201c565b5050565b60008151905060006a636f6e736f6c652e6c6f679050602083016000808483855afa5050505050565b828054620002d6906200062d565b90600052602060002090601f016020900481019282620002fa576000855562000346565b82601f106200031557805160ff191683800117855562000346565b8280016001018555821562000346579182015b828111156200034557825182559160200191906001019062000328565b5b50905062000355919062000359565b5090565b5b80821115620003745760008160009055506001016200035a565b5090565b6000604051905090565b600080fd5b600080fd5b600080fd5b600080fd5b6000601f19601f8301169050919050565b7f4e487b7100000000000000000000000000000000000000000000000000000000600052604160045260246000fd5b620003e18262000396565b810181811067ffffffffffffffff82111715620004035762000402620003a7565b5b80604052505050565b60006200041862000378565b9050620004268282620003d6565b919050565b600067ffffffffffffffff821115620004495762000448620003a7565b5b620004548262000396565b9050602081019050919050565b60005b838110156200048157808201518184015260208101905062000464565b8381111562000491576000848401525b50505050565b6000620004ae620004a8846200042b565b6200040c565b905082815260208101848484011115620004cd57620004cc62000391565b5b620004da84828562000461565b509392505050565b600082601f830112620004fa57620004f96200038c565b5b81516200050c84826020860162000497565b91505092915050565b6000602082840312156200052e576200052d62000382565b5b600082015167ffffffffffffffff8111156200054f576200054e62000387565b5b6200055d84828501620004e2565b91505092915050565b600081519050919050565b600082825260208201905092915050565b60006200058f8262000566565b6200059b818562000571565b9350620005ad81856020860162000461565b620005b88162000396565b840191505092915050565b60006040820190508181036000830152620005df818562000582565b90508181036020830152620005f5818462000582565b90509392505050565b7f4e487b7100000000000000000000000000000000000000000000000000000000600052602260045260246000fd5b600060028204905060018216806200064657607f821691505b602082108114156200065d576200065c620005fe565b5b50919050565b61500c80620006736000396000f3fe6080604052600436106101cd5760003560e01c80638f32d59b116100f7578063c87b56dd11610095578063f2c298be11610064578063f2c298be146106f8578063f77e8bd714610714578063fb825e5f14610751578063fe2c61981461077c576101cd565b8063c87b56dd14610618578063d35bfbd814610655578063d5b0d30d1461067e578063e985e9c5146106bb576101cd565b8063a22cb465116100d1578063a22cb46514610560578063b88d4fde14610589578063bf40fac1146105b2578063c1880a98146105ef576101cd565b80638f32d59b146104cd57806395d89b41146104f85780639791c09714610523576101cd565b80632d5514321161016f578063541e771d1161013e578063541e771d146103eb5780636352211e1461042857806370a08231146104655780638da5cb5b146104a2576101cd565b80632d551432146103435780633ccfd60b1461036e57806342842e0e146103855780634622ab03146103ae576101cd565b8063095ea7b3116101ab578063095ea7b31461027757806311dd8845146102a057806323b872dd146102dd5780632644923514610306576101cd565b806301ffc9a7146101d257806306fdde031461020f578063081812fc1461023a575b600080fd5b3480156101de57600080fd5b506101f960048036038101906101f491906133a0565b6107b9565b60405161020691906133e8565b60405180910390f35b34801561021b57600080fd5b5061022461089b565b604051610231919061349c565b60405180910390f35b34801561024657600080fd5b50610261600480360381019061025c91906134f4565b61092d565b60405161026e9190613562565b60405180910390f35b34801561028357600080fd5b5061029e600480360381019061029991906135a9565b6109b2565b005b3480156102ac57600080fd5b506102c760048036038101906102c2919061364e565b610aca565b6040516102d4919061349c565b60405180910390f35b3480156102e957600080fd5b5061030460048036038101906102ff919061369b565b610b7d565b005b34801561031257600080fd5b5061032d6004803603810190610328919061381e565b610bdd565b60405161033a9190613562565b60405180910390f35b34801561034f57600080fd5b50610358610c26565b604051610365919061349c565b60405180910390f35b34801561037a57600080fd5b50610383610cb4565b005b34801561039157600080fd5b506103ac60048036038101906103a7919061369b565b610d7a565b005b3480156103ba57600080fd5b506103d560048036038101906103d091906134f4565b610d9a565b6040516103e2919061349c565b60405180910390f35b3480156103f757600080fd5b50610412600480360381019061040d919061381e565b610e3a565b60405161041f919061349c565b60405180910390f35b34801561043457600080fd5b5061044f600480360381019061044a91906134f4565b610ef0565b60405161045c9190613562565b60405180910390f35b34801561047157600080fd5b5061048c60048036038101906104879190613867565b610fa2565b60405161049991906138a3565b60405180910390f35b3480156104ae57600080fd5b506104b761105a565b6040516104c491906138df565b60405180910390f35b3480156104d957600080fd5b506104e2611080565b6040516104ef91906133e8565b60405180910390f35b34801561050457600080fd5b5061050d6110d8565b60405161051a919061349c565b60405180910390f35b34801561052f57600080fd5b5061054a6004803603810190610545919061364e565b61116a565b60405161055791906133e8565b60405180910390f35b34801561056c57600080fd5b5061058760048036038101906105829190613926565b61121e565b005b34801561059557600080fd5b506105b060048036038101906105ab9190613a07565b611234565b005b3480156105be57600080fd5b506105d960048036038101906105d4919061364e565b611296565b6040516105e69190613562565b60405180910390f35b3480156105fb57600080fd5b5061061660048036038101906106119190613a8a565b6112e1565b005b34801561062457600080fd5b5061063f600480360381019061063a91906134f4565b6113bc565b60405161064c919061349c565b60405180910390f35b34801561066157600080fd5b5061067c60048036038101906106779190613a8a565b61150e565b005b34801561068a57600080fd5b506106a560048036038101906106a0919061381e565b6115bc565b6040516106b2919061349c565b60405180910390f35b3480156106c757600080fd5b506106e260048036038101906106dd9190613b0b565b611672565b6040516106ef91906133e8565b60405180910390f35b610712600480360381019061070d919061364e565b611706565b005b34801561072057600080fd5b5061073b6004803603810190610736919061364e565b611b84565b604051610748919061349c565b60405180910390f35b34801561075d57600080fd5b50610766611c37565b6040516107739190613c57565b60405180910390f35b34801561078857600080fd5b506107a3600480360381019061079e919061364e565b611e15565b6040516107b091906138a3565b60405180910390f35b60007f80ac58cd000000000000000000000000000000000000000000000000000000007bffffffffffffffffffffffffffffffffffffffffffffffffffffffff1916827bffffffffffffffffffffffffffffffffffffffffffffffffffffffff1916148061088457507f5b5e139f000000000000000000000000000000000000000000000000000000007bffffffffffffffffffffffffffffffffffffffffffffffffffffffff1916827bffffffffffffffffffffffffffffffffffffffffffffffffffffffff1916145b80610894575061089382611f57565b5b9050919050565b6060600080546108aa90613ca8565b80601f01602080910402602001604051908101604052809291908181526020018280546108d690613ca8565b80156109235780601f106108f857610100808354040283529160200191610923565b820191906000526020600020905b81548152906001019060200180831161090657829003601f168201915b5050505050905090565b600061093882611fc1565b610977576040517f08c379a000000000000000000000000000000000000000000000000000000000815260040161096e90613d4c565b60405180910390fd5b6004600083815260200190815260200160002060009054906101000a900473ffffffffffffffffffffffffffffffffffffffff169050919050565b60006109bd82610ef0565b90508073ffffffffffffffffffffffffffffffffffffffff168373ffffffffffffffffffffffffffffffffffffffff161415610a2e576040517f08c379a0000000000000000000000000000000000000000000000000000000008152600401610a2590613dde565b60405180910390fd5b8073ffffffffffffffffffffffffffffffffffffffff16610a4d61202d565b73ffffffffffffffffffffffffffffffffffffffff161480610a7c5750610a7b81610a7661202d565b611672565b5b610abb576040517f08c379a0000000000000000000000000000000000000000000000000000000008152600401610ab290613e70565b60405180910390fd5b610ac58383612035565b505050565b6060600c8383604051610ade929190613ec0565b90815260200160405180910390208054610af790613ca8565b80601f0160208091040260200160405190810160405280929190818152602001828054610b2390613ca8565b8015610b705780601f10610b4557610100808354040283529160200191610b70565b820191906000526020600020905b815481529060010190602001808311610b5357829003601f168201915b5050505050905092915050565b610b8e610b8861202d565b826120ee565b610bcd576040517f08c379a0000000000000000000000000000000000000000000000000000000008152600401610bc490613f4b565b60405180910390fd5b610bd88383836121cc565b505050565b600b818051602081018201805184825260208301602085012081835280955050505050506000915054906101000a900473ffffffffffffffffffffffffffffffffffffffff1681565b60088054610c3390613ca8565b80601f0160208091040260200160405190810160405280929190818152602001828054610c5f90613ca8565b8015610cac5780601f10610c8157610100808354040283529160200191610cac565b820191906000526020600020905b815481529060010190602001808311610c8f57829003601f168201915b505050505081565b610cbc611080565b610cc557600080fd5b600047905060003373ffffffffffffffffffffffffffffffffffffffff1682604051610cf090613f9c565b60006040518083038185875af1925050503d8060008114610d2d576040519150601f19603f3d011682016040523d82523d6000602084013e610d32565b606091505b5050905080610d76576040517f08c379a0000000000000000000000000000000000000000000000000000000008152600401610d6d90613ffd565b60405180910390fd5b5050565b610d9583838360405180602001604052806000815250611234565b505050565b600e6020528060005260406000206000915090508054610db990613ca8565b80601f0160208091040260200160405190810160405280929190818152602001828054610de590613ca8565b8015610e325780601f10610e0757610100808354040283529160200191610e32565b820191906000526020600020905b815481529060010190602001808311610e1557829003601f168201915b505050505081565b600c818051602081018201805184825260208301602085012081835280955050505050506000915090508054610e6f90613ca8565b80601f0160208091040260200160405190810160405280929190818152602001828054610e9b90613ca8565b8015610ee85780601f10610ebd57610100808354040283529160200191610ee8565b820191906000526020600020905b815481529060010190602001808311610ecb57829003601f168201915b505050505081565b6000806002600084815260200190815260200160002060009054906101000a900473ffffffffffffffffffffffffffffffffffffffff169050600073ffffffffffffffffffffffffffffffffffffffff168173ffffffffffffffffffffffffffffffffffffffff161415610f99576040517f08c379a0000000000000000000000000000000000000000000000000000000008152600401610f909061408f565b60405180910390fd5b80915050919050565b60008073ffffffffffffffffffffffffffffffffffffffff168273ffffffffffffffffffffffffffffffffffffffff161415611013576040517f08c379a000000000000000000000000000000000000000000000000000000000815260040161100a90614121565b60405180910390fd5b600360008373ffffffffffffffffffffffffffffffffffffffff1673ffffffffffffffffffffffffffffffffffffffff168152602001908152602001600020549050919050565b600f60009054906101000a900473ffffffffffffffffffffffffffffffffffffffff1681565b6000600f60009054906101000a900473ffffffffffffffffffffffffffffffffffffffff1673ffffffffffffffffffffffffffffffffffffffff163373ffffffffffffffffffffffffffffffffffffffff1614905090565b6060600180546110e790613ca8565b80601f016020809104026020016040519081016040528092919081815260200182805461111390613ca8565b80156111605780601f1061113557610100808354040283529160200191611160565b820191906000526020600020905b81548152906001019060200180831161114357829003601f168201915b5050505050905090565b600060036111bb84848080601f016020809104026020016040519081016040528093929190818152602001838380828437600081840152601f19601f82011690508083019250505050505050612433565b101580156112165750600a61121384848080601f016020809104026020016040519081016040528093929190818152602001838380828437600081840152601f19601f82011690508083019250505050505050612433565b11155b905092915050565b61123061122961202d565b83836125e8565b5050565b61124561123f61202d565b836120ee565b611284576040517f08c379a000000000000000000000000000000000000000000000000000000000815260040161127b90613f4b565b60405180910390fd5b61129084848484612755565b50505050565b6000600b83836040516112aa929190613ec0565b908152602001604051809103902060009054906101000a900473ffffffffffffffffffffffffffffffffffffffff16905092915050565b600b84846040516112f3929190613ec0565b908152602001604051809103902060009054906101000a900473ffffffffffffffffffffffffffffffffffffffff1673ffffffffffffffffffffffffffffffffffffffff163373ffffffffffffffffffffffffffffffffffffffff1614611386576040517f82b4290000000000000000000000000000000000000000000000000000000000815260040160405180910390fd5b8181600c868660405161139a929190613ec0565b908152602001604051809103902091906113b592919061320b565b5050505050565b60606113c782611fc1565b611406576040517f08c379a00000000000000000000000000000000000000000000000000000000081526004016113fd906141b3565b60405180910390fd5b600060066000848152602001908152602001600020805461142690613ca8565b80601f016020809104026020016040519081016040528092919081815260200182805461145290613ca8565b801561149f5780601f106114745761010080835404028352916020019161149f565b820191906000526020600020905b81548152906001019060200180831161148257829003601f168201915b5050505050905060006114b06127b1565b90506000815114156114c6578192505050611509565b6000825111156114fb5780826040516020016114e3929190614204565b60405160208183030381529060405292505050611509565b611504846127c8565b925050505b919050565b3373ffffffffffffffffffffffffffffffffffffffff16600b8585604051611537929190613ec0565b908152602001604051809103902060009054906101000a900473ffffffffffffffffffffffffffffffffffffffff1673ffffffffffffffffffffffffffffffffffffffff161461158657600080fd5b8181600d868660405161159a929190613ec0565b908152602001604051809103902091906115b592919061320b565b5050505050565b600d8180516020810182018051848252602083016020850120818352809550505050505060009150905080546115f190613ca8565b80601f016020809104026020016040519081016040528092919081815260200182805461161d90613ca8565b801561166a5780601f1061163f5761010080835404028352916020019161166a565b820191906000526020600020905b81548152906001019060200180831161164d57829003601f168201915b505050505081565b6000600560008473ffffffffffffffffffffffffffffffffffffffff1673ffffffffffffffffffffffffffffffffffffffff16815260200190815260200160002060008373ffffffffffffffffffffffffffffffffffffffff1673ffffffffffffffffffffffffffffffffffffffff16815260200190815260200160002060009054906101000a900460ff16905092915050565b600073ffffffffffffffffffffffffffffffffffffffff16600b8383604051611730929190613ec0565b908152602001604051809103902060009054906101000a900473ffffffffffffffffffffffffffffffffffffffff1673ffffffffffffffffffffffffffffffffffffffff16146117ac576040517f3a81d6fc00000000000000000000000000000000000000000000000000000000815260040160405180910390fd5b6117b6828261116a565b6117f95781816040517f7f19f48d0000000000000000000000000000000000000000000000000000000081526004016117f0929190614255565b60405180910390fd5b60006118058383611e15565b90508034101561184a576040517f08c379a0000000000000000000000000000000000000000000000000000000008152600401611841906142c5565b60405180910390fd5b600083836008604051602001611862939291906143c5565b60405160208183030381529060405290506000600982600a60405160200161188c939291906143f6565b604051602081830303815290604052905060006118a9600761286f565b905060006118fa87878080601f016020809104026020016040519081016040528093929190818152602001838380828437600081840152601f19601f82011690508083019250505050505050612433565b905060006119078261287d565b90506119fb604051806060016040528060318152602001614f2d6031913989898080601f016020809104026020016040519081016040528093929190818152602001838380828437600081840152601f19601f820116905080830192505050505050506008805461197790613ca8565b80601f01602080910402602001604051908101604052809291908181526020018280546119a390613ca8565b80156119f05780601f106119c5576101008083540402835291602001916119f0565b820191906000526020600020905b8154815290600101906020018083116119d357829003601f168201915b5050505050866129de565b6000611a3186611a0a87612a80565b84604051602001611a1d939291906145a3565b604051602081830303815290604052612a80565b9050600081604051602001611a46919061464c565b6040516020818303038152906040529050611a78604051806060016040528060398152602001614ef460399139612c18565b611ab76040518060400160405280600e81526020017f46696e616c20746f6b656e55524900000000000000000000000000000000000081525082611ebb565b611ad8604051806060016040528060398152602001614f5e60399139612c18565b611ae23386612cb1565b611aec8582612ccf565b33600b8b8b604051611aff929190613ec0565b908152602001604051809103902060006101000a81548173ffffffffffffffffffffffffffffffffffffffff021916908373ffffffffffffffffffffffffffffffffffffffff1602179055508989600e60008881526020019081526020016000209190611b6d92919061320b565b50611b786007612d43565b50505050505050505050565b6060600d8383604051611b98929190613ec0565b90815260200160405180910390208054611bb190613ca8565b80601f0160208091040260200160405190810160405280929190818152602001828054611bdd90613ca8565b8015611c2a5780601f10611bff57610100808354040283529160200191611c2a565b820191906000526020600020905b815481529060010190602001808311611c0d57829003601f168201915b5050505050905092915050565b6060611c776040518060400160405280601f81526020017f47657474696e6720616c6c206e616d65732066726f6d20636f6e747261637400815250612c18565b6000611c83600761286f565b67ffffffffffffffff811115611c9c57611c9b6136f3565b5b604051908082528060200260200182016040528015611ccf57816020015b6060815260200190600190039081611cba5790505b50905060005b611cdf600761286f565b811015611e0d57600e60008281526020019081526020016000208054611d0490613ca8565b80601f0160208091040260200160405190810160405280929190818152602001828054611d3090613ca8565b8015611d7d5780601f10611d5257610100808354040283529160200191611d7d565b820191906000526020600020905b815481529060010190602001808311611d6057829003601f168201915b5050505050828281518110611d9557611d9461466e565b5b6020026020010181905250611dfa6040518060400160405280601781526020017f4e616d6520666f7220746f6b656e20256420697320257300000000000000000081525082848481518110611ded57611dec61466e565b5b6020026020010151612d59565b8080611e05906146cc565b915050611cd5565b508091505090565b600080611e6584848080601f016020809104026020016040519081016040528093929190818152602001838380828437600081840152601f19601f82011690508083019250505050505050612433565b905060008111611e7457600080fd5b6003811415611e8e576706f05b59d3b20000915050611eb5565b6004811415611ea857670429d069189e0000915050611eb5565b67016345785d8a00009150505b92915050565b611f538282604051602401611ed1929190614715565b6040516020818303038152906040527f4b5c4277000000000000000000000000000000000000000000000000000000007bffffffffffffffffffffffffffffffffffffffffffffffffffffffff19166020820180517bffffffffffffffffffffffffffffffffffffffffffffffffffffffff8381831617835250505050612df8565b5050565b60007f01ffc9a7000000000000000000000000000000000000000000000000000000007bffffffffffffffffffffffffffffffffffffffffffffffffffffffff1916827bffffffffffffffffffffffffffffffffffffffffffffffffffffffff1916149050919050565b60008073ffffffffffffffffffffffffffffffffffffffff166002600084815260200190815260200160002060009054906101000a900473ffffffffffffffffffffffffffffffffffffffff1673ffffffffffffffffffffffffffffffffffffffff1614159050919050565b600033905090565b816004600083815260200190815260200160002060006101000a81548173ffffffffffffffffffffffffffffffffffffffff021916908373ffffffffffffffffffffffffffffffffffffffff160217905550808273ffffffffffffffffffffffffffffffffffffffff166120a883610ef0565b73ffffffffffffffffffffffffffffffffffffffff167f8c5be1e5ebec7d5bd14f71427d1e84f3dd0314c0f7b2291e5b200ac8c7c3b92560405160405180910390a45050565b60006120f982611fc1565b612138576040517f08c379a000000000000000000000000000000000000000000000000000000000815260040161212f906147be565b60405180910390fd5b600061214383610ef0565b90508073ffffffffffffffffffffffffffffffffffffffff168473ffffffffffffffffffffffffffffffffffffffff16148061218557506121848185611672565b5b806121c357508373ffffffffffffffffffffffffffffffffffffffff166121ab8461092d565b73ffffffffffffffffffffffffffffffffffffffff16145b91505092915050565b8273ffffffffffffffffffffffffffffffffffffffff166121ec82610ef0565b73ffffffffffffffffffffffffffffffffffffffff1614612242576040517f08c379a000000000000000000000000000000000000000000000000000000000815260040161223990614850565b60405180910390fd5b600073ffffffffffffffffffffffffffffffffffffffff168273ffffffffffffffffffffffffffffffffffffffff1614156122b2576040517f08c379a00000000000000000000000000000000000000000000000000000000081526004016122a9906148e2565b60405180910390fd5b6122bd838383612e21565b6122c8600082612035565b6001600360008573ffffffffffffffffffffffffffffffffffffffff1673ffffffffffffffffffffffffffffffffffffffff16815260200190815260200160002060008282546123189190614902565b925050819055506001600360008473ffffffffffffffffffffffffffffffffffffffff1673ffffffffffffffffffffffffffffffffffffffff168152602001908152602001600020600082825461236f9190614936565b92505081905550816002600083815260200190815260200160002060006101000a81548173ffffffffffffffffffffffffffffffffffffffff021916908373ffffffffffffffffffffffffffffffffffffffff160217905550808273ffffffffffffffffffffffffffffffffffffffff168473ffffffffffffffffffffffffffffffffffffffff167fddf252ad1be2c89b69c2b068fc378daa952ba7f163c4a11628f55a4df523b3ef60405160405180910390a461242e838383612e26565b505050565b60008060008084519050600092505b808210156125dd57600085838151811061245f5761245e61466e565b5b602001015160f81c60f81b9050608060f81b817effffffffffffffffffffffffffffffffffffffffffffffffffffffffffffff191610156124ae576001836124a79190614936565b92506125c9565b60e060f81b817effffffffffffffffffffffffffffffffffffffffffffffffffffffffffffff191610156124f0576002836124e99190614936565b92506125c8565b60f060f81b817effffffffffffffffffffffffffffffffffffffffffffffffffffffffffffff191610156125325760038361252b9190614936565b92506125c7565b60f8801b817effffffffffffffffffffffffffffffffffffffffffffffffffffffffffffff191610156125735760048361256c9190614936565b92506125c6565b60fc60f81b817effffffffffffffffffffffffffffffffffffffffffffffffffffffffffffff191610156125b5576005836125ae9190614936565b92506125c5565b6006836125c29190614936565b92505b5b5b5b5b5082806125d5906146cc565b935050612442565b829350505050919050565b8173ffffffffffffffffffffffffffffffffffffffff168373ffffffffffffffffffffffffffffffffffffffff161415612657576040517f08c379a000000000000000000000000000000000000000000000000000000000815260040161264e906149d8565b60405180910390fd5b80600560008573ffffffffffffffffffffffffffffffffffffffff1673ffffffffffffffffffffffffffffffffffffffff16815260200190815260200160002060008473ffffffffffffffffffffffffffffffffffffffff1673ffffffffffffffffffffffffffffffffffffffff16815260200190815260200160002060006101000a81548160ff0219169083151502179055508173ffffffffffffffffffffffffffffffffffffffff168373ffffffffffffffffffffffffffffffffffffffff167f17307eab39ab6107e8899845ad3d59bd9653f200f220920489ca2b5937696c318360405161274891906133e8565b60405180910390a3505050565b6127608484846121cc565b61276c84848484612e2b565b6127ab576040517f08c379a00000000000000000000000000000000000000000000000000000000081526004016127a290614a6a565b60405180910390fd5b50505050565b606060405180602001604052806000815250905090565b60606127d382611fc1565b612812576040517f08c379a000000000000000000000000000000000000000000000000000000000815260040161280990614afc565b60405180910390fd5b600061281c6127b1565b9050600081511161283c5760405180602001604052806000815250612867565b806128468461287d565b604051602001612857929190614204565b6040516020818303038152906040525b915050919050565b600081600001549050919050565b606060008214156128c5576040518060400160405280600181526020017f300000000000000000000000000000000000000000000000000000000000000081525090506129d9565b600082905060005b600082146128f75780806128e0906146cc565b915050600a826128f09190614b4b565b91506128cd565b60008167ffffffffffffffff811115612913576129126136f3565b5b6040519080825280601f01601f1916602001820160405280156129455781602001600182028036833780820191505090505b5090505b600085146129d25760018261295e9190614902565b9150600a8561296d9190614b7c565b60306129799190614936565b60f81b81838151811061298f5761298e61466e565b5b60200101907effffffffffffffffffffffffffffffffffffffffffffffffffffffffffffff1916908160001a905350600a856129cb9190614b4b565b9450612949565b8093505050505b919050565b612a7a848484846040516024016129f89493929190614bad565b6040516020818303038152906040527f9fd009f5000000000000000000000000000000000000000000000000000000007bffffffffffffffffffffffffffffffffffffffffffffffffffffffff19166020820180517bffffffffffffffffffffffffffffffffffffffffffffffffffffffff8381831617835250505050612df8565b50505050565b60606000825190506000811415612aa95760405180602001604052806000815250915050612c13565b60006003600283612aba9190614936565b612ac49190614b4b565b6004612ad09190614c07565b90506000602082612ae19190614936565b67ffffffffffffffff811115612afa57612af96136f3565b5b6040519080825280601f01601f191660200182016040528015612b2c5781602001600182028036833780820191505090505b5090506000604051806060016040528060408152602001614f97604091399050600181016020830160005b86811015612bd05760038101905062ffffff818a015116603f8160121c168401518060081b905060ff603f83600c1c1686015116810190508060081b905060ff603f8360061c1686015116810190508060081b905060ff603f831686015116810190508060e01b90508084526004840193505050612b57565b506003860660018114612bea5760028114612bfa57612c05565b613d3d60f01b6002830352612c05565b603d60f81b60018303525b508484525050819450505050505b919050565b612cae81604051602401612c2c919061349c565b6040516020818303038152906040527f41304fac000000000000000000000000000000000000000000000000000000007bffffffffffffffffffffffffffffffffffffffffffffffffffffffff19166020820180517bffffffffffffffffffffffffffffffffffffffffffffffffffffffff8381831617835250505050612df8565b50565b612ccb828260405180602001604052806000815250612fb3565b5050565b612cd882611fc1565b612d17576040517f08c379a0000000000000000000000000000000000000000000000000000000008152600401612d0e90614cd3565b60405180910390fd5b80600660008481526020019081526020016000209080519060200190612d3e929190613291565b505050565b6001816000016000828254019250508190555050565b612df3838383604051602401612d7193929190614cf3565b6040516020818303038152906040527fa3f5c739000000000000000000000000000000000000000000000000000000007bffffffffffffffffffffffffffffffffffffffffffffffffffffffff19166020820180517bffffffffffffffffffffffffffffffffffffffffffffffffffffffff8381831617835250505050612df8565b505050565b60008151905060006a636f6e736f6c652e6c6f679050602083016000808483855afa5050505050565b505050565b505050565b6000612e4c8473ffffffffffffffffffffffffffffffffffffffff1661300e565b15612fa6578373ffffffffffffffffffffffffffffffffffffffff1663150b7a02612e7561202d565b8786866040518563ffffffff1660e01b8152600401612e979493929190614d8d565b6020604051808303816000875af1925050508015612ed357506040513d601f19601f82011682018060405250810190612ed09190614dee565b60015b612f56573d8060008114612f03576040519150601f19603f3d011682016040523d82523d6000602084013e612f08565b606091505b50600081511415612f4e576040517f08c379a0000000000000000000000000000000000000000000000000000000008152600401612f4590614a6a565b60405180910390fd5b805181602001fd5b63150b7a0260e01b7bffffffffffffffffffffffffffffffffffffffffffffffffffffffff1916817bffffffffffffffffffffffffffffffffffffffffffffffffffffffff191614915050612fab565b600190505b949350505050565b612fbd8383613031565b612fca6000848484612e2b565b613009576040517f08c379a000000000000000000000000000000000000000000000000000000000815260040161300090614a6a565b60405180910390fd5b505050565b6000808273ffffffffffffffffffffffffffffffffffffffff163b119050919050565b600073ffffffffffffffffffffffffffffffffffffffff168273ffffffffffffffffffffffffffffffffffffffff1614156130a1576040517f08c379a000000000000000000000000000000000000000000000000000000000815260040161309890614e67565b60405180910390fd5b6130aa81611fc1565b156130ea576040517f08c379a00000000000000000000000000000000000000000000000000000000081526004016130e190614ed3565b60405180910390fd5b6130f660008383612e21565b6001600360008473ffffffffffffffffffffffffffffffffffffffff1673ffffffffffffffffffffffffffffffffffffffff16815260200190815260200160002060008282546131469190614936565b92505081905550816002600083815260200190815260200160002060006101000a81548173ffffffffffffffffffffffffffffffffffffffff021916908373ffffffffffffffffffffffffffffffffffffffff160217905550808273ffffffffffffffffffffffffffffffffffffffff16600073ffffffffffffffffffffffffffffffffffffffff167fddf252ad1be2c89b69c2b068fc378daa952ba7f163c4a11628f55a4df523b3ef60405160405180910390a461320760008383612e26565b5050565b82805461321790613ca8565b90600052602060002090601f0160209004810192826132395760008555613280565b82601f1061325257803560ff1916838001178555613280565b82800160010185558215613280579182015b8281111561327f578235825591602001919060010190613264565b5b50905061328d9190613317565b5090565b82805461329d90613ca8565b90600052602060002090601f0160209004810192826132bf5760008555613306565b82601f106132d857805160ff1916838001178555613306565b82800160010185558215613306579182015b828111156133055782518255916020019190600101906132ea565b5b5090506133139190613317565b5090565b5b80821115613330576000816000905550600101613318565b5090565b6000604051905090565b600080fd5b600080fd5b60007fffffffff0000000000000000000000000000000000000000000000000000000082169050919050565b61337d81613348565b811461338857600080fd5b50565b60008135905061339a81613374565b92915050565b6000602082840312156133b6576133b561333e565b5b60006133c48482850161338b565b91505092915050565b60008115159050919050565b6133e2816133cd565b82525050565b60006020820190506133fd60008301846133d9565b92915050565b600081519050919050565b600082825260208201905092915050565b60005b8381101561343d578082015181840152602081019050613422565b8381111561344c576000848401525b50505050565b6000601f19601f8301169050919050565b600061346e82613403565b613478818561340e565b935061348881856020860161341f565b61349181613452565b840191505092915050565b600060208201905081810360008301526134b68184613463565b905092915050565b6000819050919050565b6134d1816134be565b81146134dc57600080fd5b50565b6000813590506134ee816134c8565b92915050565b60006020828403121561350a5761350961333e565b5b6000613518848285016134df565b91505092915050565b600073ffffffffffffffffffffffffffffffffffffffff82169050919050565b600061354c82613521565b9050919050565b61355c81613541565b82525050565b60006020820190506135776000830184613553565b92915050565b61358681613541565b811461359157600080fd5b50565b6000813590506135a38161357d565b92915050565b600080604083850312156135c0576135bf61333e565b5b60006135ce85828601613594565b92505060206135df858286016134df565b9150509250929050565b600080fd5b600080fd5b600080fd5b60008083601f84011261360e5761360d6135e9565b5b8235905067ffffffffffffffff81111561362b5761362a6135ee565b5b602083019150836001820283011115613647576136466135f3565b5b9250929050565b600080602083850312156136655761366461333e565b5b600083013567ffffffffffffffff81111561368357613682613343565b5b61368f858286016135f8565b92509250509250929050565b6000806000606084860312156136b4576136b361333e565b5b60006136c286828701613594565b93505060206136d386828701613594565b92505060406136e4868287016134df565b9150509250925092565b600080fd5b7f4e487b7100000000000000000000000000000000000000000000000000000000600052604160045260246000fd5b61372b82613452565b810181811067ffffffffffffffff8211171561374a576137496136f3565b5b80604052505050565b600061375d613334565b90506137698282613722565b919050565b600067ffffffffffffffff821115613789576137886136f3565b5b61379282613452565b9050602081019050919050565b82818337600083830152505050565b60006137c16137bc8461376e565b613753565b9050828152602081018484840111156137dd576137dc6136ee565b5b6137e884828561379f565b509392505050565b600082601f830112613805576138046135e9565b5b81356138158482602086016137ae565b91505092915050565b6000602082840312156138345761383361333e565b5b600082013567ffffffffffffffff81111561385257613851613343565b5b61385e848285016137f0565b91505092915050565b60006020828403121561387d5761387c61333e565b5b600061388b84828501613594565b91505092915050565b61389d816134be565b82525050565b60006020820190506138b86000830184613894565b92915050565b60006138c982613521565b9050919050565b6138d9816138be565b82525050565b60006020820190506138f460008301846138d0565b92915050565b613903816133cd565b811461390e57600080fd5b50565b600081359050613920816138fa565b92915050565b6000806040838503121561393d5761393c61333e565b5b600061394b85828601613594565b925050602061395c85828601613911565b9150509250929050565b600067ffffffffffffffff821115613981576139806136f3565b5b61398a82613452565b9050602081019050919050565b60006139aa6139a584613966565b613753565b9050828152602081018484840111156139c6576139c56136ee565b5b6139d184828561379f565b509392505050565b600082601f8301126139ee576139ed6135e9565b5b81356139fe848260208601613997565b91505092915050565b60008060008060808587031215613a2157613a2061333e565b5b6000613a2f87828801613594565b9450506020613a4087828801613594565b9350506040613a51878288016134df565b925050606085013567ffffffffffffffff811115613a7257613a71613343565b5b613a7e878288016139d9565b91505092959194509250565b60008060008060408587031215613aa457613aa361333e565b5b600085013567ffffffffffffffff811115613ac257613ac1613343565b5b613ace878288016135f8565b9450945050602085013567ffffffffffffffff811115613af157613af0613343565b5b613afd878288016135f8565b925092505092959194509250565b60008060408385031215613b2257613b2161333e565b5b6000613b3085828601613594565b9250506020613b4185828601613594565b9150509250929050565b600081519050919050565b600082825260208201905092915050565b6000819050602082019050919050565b600082825260208201905092915050565b6000613b9382613403565b613b9d8185613b77565b9350613bad81856020860161341f565b613bb681613452565b840191505092915050565b6000613bcd8383613b88565b905092915050565b6000602082019050919050565b6000613bed82613b4b565b613bf78185613b56565b935083602082028501613c0985613b67565b8060005b85811015613c455784840389528151613c268582613bc1565b9450613c3183613bd5565b925060208a01995050600181019050613c0d565b50829750879550505050505092915050565b60006020820190508181036000830152613c718184613be2565b905092915050565b7f4e487b7100000000000000000000000000000000000000000000000000000000600052602260045260246000fd5b60006002820490506001821680613cc057607f821691505b60208210811415613cd457613cd3613c79565b5b50919050565b7f4552433732313a20617070726f76656420717565727920666f72206e6f6e657860008201527f697374656e7420746f6b656e0000000000000000000000000000000000000000602082015250565b6000613d36602c8361340e565b9150613d4182613cda565b604082019050919050565b60006020820190508181036000830152613d6581613d29565b9050919050565b7f4552433732313a20617070726f76616c20746f2063757272656e74206f776e6560008201527f7200000000000000000000000000000000000000000000000000000000000000602082015250565b6000613dc860218361340e565b9150613dd382613d6c565b604082019050919050565b60006020820190508181036000830152613df781613dbb565b9050919050565b7f4552433732313a20617070726f76652063616c6c6572206973206e6f74206f7760008201527f6e6572206e6f7220617070726f76656420666f7220616c6c0000000000000000602082015250565b6000613e5a60388361340e565b9150613e6582613dfe565b604082019050919050565b60006020820190508181036000830152613e8981613e4d565b9050919050565b600081905092915050565b6000613ea78385613e90565b9350613eb483858461379f565b82840190509392505050565b6000613ecd828486613e9b565b91508190509392505050565b7f4552433732313a207472616e736665722063616c6c6572206973206e6f74206f60008201527f776e6572206e6f7220617070726f766564000000000000000000000000000000602082015250565b6000613f3560318361340e565b9150613f4082613ed9565b604082019050919050565b60006020820190508181036000830152613f6481613f28565b9050919050565b600081905092915050565b50565b6000613f86600083613f6b565b9150613f9182613f76565b600082019050919050565b6000613fa782613f79565b9150819050919050565b7f4661696c656420746f207769746864726177204d617469630000000000000000600082015250565b6000613fe760188361340e565b9150613ff282613fb1565b602082019050919050565b6000602082019050818103600083015261401681613fda565b9050919050565b7f4552433732313a206f776e657220717565727920666f72206e6f6e657869737460008201527f656e7420746f6b656e0000000000000000000000000000000000000000000000602082015250565b600061407960298361340e565b91506140848261401d565b604082019050919050565b600060208201905081810360008301526140a88161406c565b9050919050565b7f4552433732313a2062616c616e636520717565727920666f7220746865207a6560008201527f726f206164647265737300000000000000000000000000000000000000000000602082015250565b600061410b602a8361340e565b9150614116826140af565b604082019050919050565b6000602082019050818103600083015261413a816140fe565b9050919050565b7f45524337323155524953746f726167653a2055524920717565727920666f722060008201527f6e6f6e6578697374656e7420746f6b656e000000000000000000000000000000602082015250565b600061419d60318361340e565b91506141a882614141565b604082019050919050565b600060208201905081810360008301526141cc81614190565b9050919050565b60006141de82613403565b6141e88185613e90565b93506141f881856020860161341f565b80840191505092915050565b600061421082856141d3565b915061421c82846141d3565b91508190509392505050565b6000614234838561340e565b935061424183858461379f565b61424a83613452565b840190509392505050565b60006020820190508181036000830152614270818486614228565b90509392505050565b7f4e6f7420656e6f756768204d6174696320706169640000000000000000000000600082015250565b60006142af60158361340e565b91506142ba82614279565b602082019050919050565b600060208201905081810360008301526142de816142a2565b9050919050565b7f2e00000000000000000000000000000000000000000000000000000000000000600082015250565b600061431b600183613e90565b9150614326826142e5565b600182019050919050565b60008190508160005260206000209050919050565b6000815461435381613ca8565b61435d8186613e90565b945060018216600081146143785760018114614389576143bc565b60ff198316865281860193506143bc565b61439285614331565b60005b838110156143b457815481890152600182019150602081019050614395565b838801955050505b50505092915050565b60006143d2828587613e9b565b91506143dd8261430e565b91506143e98284614346565b9150819050949350505050565b60006144028286614346565b915061440e82856141d3565b915061441a8284614346565b9150819050949350505050565b7f7b226e616d65223a202200000000000000000000000000000000000000000000600082015250565b600061445d600a83613e90565b915061446882614427565b600a82019050919050565b7f222c20226465736372697074696f6e223a20224120646f6d61696e206f6e207460008201527f6865204e696e6a61206e616d652073657276696365222c2022696d616765223a60208201527f2022646174613a696d6167652f7376672b786d6c3b6261736536342c00000000604082015250565b60006144f5605c83613e90565b915061450082614473565b605c82019050919050565b7f222c226c656e677468223a220000000000000000000000000000000000000000600082015250565b6000614541600c83613e90565b915061454c8261450b565b600c82019050919050565b7f227d000000000000000000000000000000000000000000000000000000000000600082015250565b600061458d600283613e90565b915061459882614557565b600282019050919050565b60006145ae82614450565b91506145ba82866141d3565b91506145c5826144e8565b91506145d182856141d3565b91506145dc82614534565b91506145e882846141d3565b91506145f382614580565b9150819050949350505050565b7f646174613a6170706c69636174696f6e2f6a736f6e3b6261736536342c000000600082015250565b6000614636601d83613e90565b915061464182614600565b601d82019050919050565b600061465782614629565b915061466382846141d3565b915081905092915050565b7f4e487b7100000000000000000000000000000000000000000000000000000000600052603260045260246000fd5b7f4e487b7100000000000000000000000000000000000000000000000000000000600052601160045260246000fd5b60006146d7826134be565b91507fffffffffffffffffffffffffffffffffffffffffffffffffffffffffffffffff82141561470a5761470961469d565b5b600182019050919050565b6000604082019050818103600083015261472f8185613463565b905081810360208301526147438184613463565b90509392505050565b7f4552433732313a206f70657261746f7220717565727920666f72206e6f6e657860008201527f697374656e7420746f6b656e0000000000000000000000000000000000000000602082015250565b60006147a8602c8361340e565b91506147b38261474c565b604082019050919050565b600060208201905081810360008301526147d78161479b565b9050919050565b7f4552433732313a207472616e736665722066726f6d20696e636f72726563742060008201527f6f776e6572000000000000000000000000000000000000000000000000000000602082015250565b600061483a60258361340e565b9150614845826147de565b604082019050919050565b600060208201905081810360008301526148698161482d565b9050919050565b7f4552433732313a207472616e7366657220746f20746865207a65726f2061646460008201527f7265737300000000000000000000000000000000000000000000000000000000602082015250565b60006148cc60248361340e565b91506148d782614870565b604082019050919050565b600060208201905081810360008301526148fb816148bf565b9050919050565b600061490d826134be565b9150614918836134be565b92508282101561492b5761492a61469d565b5b828203905092915050565b6000614941826134be565b915061494c836134be565b9250827fffffffffffffffffffffffffffffffffffffffffffffffffffffffffffffffff038211156149815761498061469d565b5b828201905092915050565b7f4552433732313a20617070726f766520746f2063616c6c657200000000000000600082015250565b60006149c260198361340e565b91506149cd8261498c565b602082019050919050565b600060208201905081810360008301526149f1816149b5565b9050919050565b7f4552433732313a207472616e7366657220746f206e6f6e20455243373231526560008201527f63656976657220696d706c656d656e7465720000000000000000000000000000602082015250565b6000614a5460328361340e565b9150614a5f826149f8565b604082019050919050565b60006020820190508181036000830152614a8381614a47565b9050919050565b7f4552433732314d657461646174613a2055524920717565727920666f72206e6f60008201527f6e6578697374656e7420746f6b656e0000000000000000000000000000000000602082015250565b6000614ae6602f8361340e565b9150614af182614a8a565b604082019050919050565b60006020820190508181036000830152614b1581614ad9565b9050919050565b7f4e487b7100000000000000000000000000000000000000000000000000000000600052601260045260246000fd5b6000614b56826134be565b9150614b61836134be565b925082614b7157614b70614b1c565b5b828204905092915050565b6000614b87826134be565b9150614b92836134be565b925082614ba257614ba1614b1c565b5b828206905092915050565b60006080820190508181036000830152614bc78187613463565b90508181036020830152614bdb8186613463565b90508181036040830152614bef8185613463565b9050614bfe6060830184613894565b95945050505050565b6000614c12826134be565b9150614c1d836134be565b9250817fffffffffffffffffffffffffffffffffffffffffffffffffffffffffffffffff0483118215151615614c5657614c5561469d565b5b828202905092915050565b7f45524337323155524953746f726167653a2055524920736574206f66206e6f6e60008201527f6578697374656e7420746f6b656e000000000000000000000000000000000000602082015250565b6000614cbd602e8361340e565b9150614cc882614c61565b604082019050919050565b60006020820190508181036000830152614cec81614cb0565b9050919050565b60006060820190508181036000830152614d0d8186613463565b9050614d1c6020830185613894565b8181036040830152614d2e8184613463565b9050949350505050565b600081519050919050565b600082825260208201905092915050565b6000614d5f82614d38565b614d698185614d43565b9350614d7981856020860161341f565b614d8281613452565b840191505092915050565b6000608082019050614da26000830187613553565b614daf6020830186613553565b614dbc6040830185613894565b8181036060830152614dce8184614d54565b905095945050505050565b600081519050614de881613374565b92915050565b600060208284031215614e0457614e0361333e565b5b6000614e1284828501614dd9565b91505092915050565b7f4552433732313a206d696e7420746f20746865207a65726f2061646472657373600082015250565b6000614e5160208361340e565b9150614e5c82614e1b565b602082019050919050565b60006020820190508181036000830152614e8081614e44565b9050919050565b7f4552433732313a20746f6b656e20616c7265616479206d696e74656400000000600082015250565b6000614ebd601c8361340e565b9150614ec882614e87565b602082019050919050565b60006020820190508181036000830152614eec81614eb0565b905091905056fe0a2d2d2d2d2d2d2d2d2d2d2d2d2d2d2d2d2d2d2d2d2d2d2d2d2d2d2d2d2d2d2d2d2d2d2d2d2d2d2d2d2d2d2d2d2d2d2d2d2d2d2d2d2d2d2d2d5265676973746572696e672025732e2573206f6e2074686520636f6e7472616374207769746820746f6b656e49442025642d2d2d2d2d2d2d2d2d2d2d2d2d2d2d2d2d2d2d2d2d2d2d2d2d2d2d2d2d2d2d2d2d2d2d2d2d2d2d2d2d2d2d2d2d2d2d2d2d2d2d2d2d2d2d2d0a4142434445464748494a4b4c4d4e4f505152535455565758595a6162636465666768696a6b6c6d6e6f707172737475767778797a303132333435363738392b2fa2646970667358221220c5a4f4b54f68d4be235e7be8978f1ae20f7acac6d474a4eb155200633267e38b64736f6c634300080a00333c73766720786d6c6e733d22687474703a2f2f7777772e77332e6f72672f323030302f737667222077696474683d2232373022206865696768743d22323730222066696c6c3d226e6f6e65223e3c706174682066696c6c3d2275726c282342292220643d224d302030683237307632373048307a222f3e3c646566733e3c66696c7465722069643d22412220636f6c6f722d696e746572706f6c6174696f6e2d66696c746572733d2273524742222066696c746572556e6974733d227573657253706163654f6e55736522206865696768743d22323730222077696474683d22323730223e3c666544726f70536861646f772064783d2230222064793d22312220737464446576696174696f6e3d22322220666c6f6f642d6f7061636974793d222e323235222077696474683d223230302522206865696768743d2232303025222f3e3c2f66696c7465723e3c2f646566733e3c7061746820643d224d37322e3836332034322e393439632d2e3636382d2e3338372d312e3432362d2e35392d322e3139372d2e3539732d312e3532392e3230342d322e3139372e35396c2d31302e30383120362e3033322d362e383520332e3933342d31302e30383120362e303332632d2e3636382e3338372d312e3432362e35392d322e3139372e3539732d312e3532392d2e3230342d322e3139372d2e35396c2d382e3031332d342e37323161342e353220342e35322030203020312d312e3538392d312e363136632d2e3338342d2e3636352d2e3539342d312e3431382d2e3630382d322e313837762d392e3331632d2e3031332d2e3737352e3138352d312e3533382e3537322d322e32303861342e323520342e323520302030203120312e3632352d312e3539356c372e3838342d342e3539632e3636382d2e33383720312e3432362d2e353920322e3139372d2e353973312e3532392e32303420322e3139372e35396c372e38383420342e353961342e353220342e353220302030203120312e35383920312e363136632e3338342e3636352e35393420312e3431382e36303820322e31383776362e3033326c362e38352d342e303635762d362e303332632e3031332d2e3737352d2e3138352d312e3533382d2e3537322d322e32303861342e323520342e32352030203020302d312e3632352d312e3539354c34312e3435362032342e3539632d2e3636382d2e3338372d312e3432362d2e35392d322e3139372d2e3539732d312e3532392e3230342d322e3139372e35396c2d31342e38363420382e36353561342e323520342e32352030203020302d312e36323520312e353935632d2e3338372e36372d2e35383520312e3433342d2e35373220322e3230387631372e343431632d2e3031332e3737352e31383520312e3533382e35373220322e32303861342e323520342e323520302030203020312e36323520312e3539356c31342e38363420382e363535632e3636382e33383720312e3432362e353920322e3139372e353973312e3532392d2e32303420322e3139372d2e35396c31302e3038312d352e39303120362e38352d342e3036352031302e3038312d352e393031632e3636382d2e33383720312e3432362d2e353920322e3139372d2e353973312e3532392e32303420322e3139372e35396c372e38383420342e353961342e353220342e353220302030203120312e35383920312e363136632e3338342e3636352e35393420312e3431382e36303820322e31383776392e333131632e3031332e3737352d2e31383520312e3533382d2e35373220322e32303861342e323520342e32352030203020312d312e36323520312e3539356c2d372e38383420342e373231632d2e3636382e3338372d312e3432362e35392d322e3139372e3539732d312e3532392d2e3230342d322e3139372d2e35396c2d372e3838342d342e353961342e353220342e35322030203020312d312e3538392d312e363136632d2e3338352d2e3636352d2e3539342d312e3431382d2e3630382d322e313837762d362e3033326c2d362e383520342e30363576362e303332632d2e3031332e3737352e31383520312e3533382e35373220322e32303861342e323520342e323520302030203020312e36323520312e3539356c31342e38363420382e363535632e3636382e33383720312e3432362e353920322e3139372e353973312e3532392d2e32303420322e3139372d2e35396c31342e3836342d382e363535632e3635372d2e33393420312e3230342d2e393520312e3538392d312e363136732e3539342d312e3431382e3630392d322e3138375635352e353338632e3031332d2e3737352d2e3138352d312e3533382d2e3537322d322e32303861342e323520342e32352030203020302d312e3632352d312e3539356c2d31342e3939332d382e3738367a222066696c6c3d2223666666222f3e3c646566733e3c6c696e6561724772616469656e742069643d2242222078313d2230222079313d2230222078323d22323730222079323d2232373022206772616469656e74556e6974733d227573657253706163654f6e557365223e3c73746f702073746f702d636f6c6f723d2223636235656565222f3e3c73746f70206f66667365743d2231222073746f702d636f6c6f723d2223306364376534222073746f702d6f7061636974793d222e3939222f3e3c2f6c696e6561724772616469656e743e3c2f646566733e3c7465787420783d2233322e352220793d223233312220666f6e742d73697a653d223237222066696c6c3d2223666666222066696c7465723d2275726c282341292220666f6e742d66616d696c793d22506c7573204a616b617274612053616e732c44656a6156752053616e732c4e6f746f20436f6c6f7220456d6f6a692c4170706c6520436f6c6f7220456d6f6a692c73616e732d73657269662220666f6e742d7765696768743d22626f6c64223e",
  "linkReferences": {},
  "deployedLinkReferences": {}
}